{
  "contractName": "Plurality",
  "abi": [
    {
      "inputs": [
        {
          "internalType": "uint256",
          "name": "_numOfPlurality",
          "type": "uint256"
        }
      ],
      "payable": false,
      "stateMutability": "nonpayable",
      "type": "constructor"
    },
    {
      "anonymous": false,
      "inputs": [
        {
          "indexed": false,
          "internalType": "address",
          "name": "_voter",
          "type": "address"
        }
      ],
      "name": "Registered",
      "type": "event"
    },
    {
      "anonymous": false,
      "inputs": [
        {
          "indexed": false,
          "internalType": "address",
          "name": "_voter",
          "type": "address"
        }
      ],
      "name": "VoteCast",
      "type": "event"
    },
    {
      "anonymous": false,
      "inputs": [
        {
          "indexed": true,
          "internalType": "uint256",
          "name": "_totalVotes",
          "type": "uint256"
        },
        {
          "indexed": true,
          "internalType": "uint256",
          "name": "_yesCount",
          "type": "uint256"
        },
        {
          "indexed": true,
          "internalType": "uint256",
          "name": "_noCount",
          "type": "uint256"
        }
      ],
      "name": "VotesCounted",
      "type": "event"
    },
    {
      "constant": true,
      "inputs": [],
      "name": "electionOfficial",
      "outputs": [
        {
          "internalType": "address",
          "name": "",
          "type": "address"
        }
      ],
      "payable": false,
      "stateMutability": "view",
      "type": "function"
    },
    {
      "constant": true,
      "inputs": [
        {
          "internalType": "uint256",
          "name": "",
          "type": "uint256"
        }
      ],
      "name": "pluralityProposals",
      "outputs": [
        {
          "internalType": "uint256",
          "name": "yesCount",
          "type": "uint256"
        },
        {
          "internalType": "uint256",
          "name": "noCount",
          "type": "uint256"
        },
        {
          "internalType": "uint256",
          "name": "totalVotes",
          "type": "uint256"
        }
      ],
      "payable": false,
      "stateMutability": "view",
      "type": "function"
    },
    {
      "constant": true,
      "inputs": [],
      "name": "totalRegisteredVoters",
      "outputs": [
        {
          "internalType": "uint256",
          "name": "",
          "type": "uint256"
        }
      ],
      "payable": false,
      "stateMutability": "view",
      "type": "function"
    },
    {
      "constant": false,
      "inputs": [
        {
          "internalType": "address",
          "name": "registeringVoter",
          "type": "address"
        }
      ],
      "name": "register",
      "outputs": [],
      "payable": false,
      "stateMutability": "nonpayable",
      "type": "function"
    },
    {
      "constant": false,
      "inputs": [
        {
          "internalType": "bool[]",
          "name": "pluralityChoices",
          "type": "bool[]"
        }
      ],
      "name": "pluralityVote",
      "outputs": [],
      "payable": false,
      "stateMutability": "nonpayable",
      "type": "function"
    },
    {
      "constant": false,
      "inputs": [],
      "name": "countPluralityProposals",
      "outputs": [],
      "payable": false,
      "stateMutability": "nonpayable",
      "type": "function"
    },
    {
      "constant": true,
      "inputs": [],
      "name": "countRegisteredVoters",
      "outputs": [
        {
          "internalType": "uint256",
          "name": "",
          "type": "uint256"
        }
      ],
      "payable": false,
      "stateMutability": "view",
      "type": "function"
    },
    {
      "constant": true,
      "inputs": [
        {
          "internalType": "address",
          "name": "voter",
          "type": "address"
        }
      ],
      "name": "getPluralityChoices",
      "outputs": [
        {
          "internalType": "bool[]",
          "name": "",
          "type": "bool[]"
        }
      ],
      "payable": false,
      "stateMutability": "view",
      "type": "function"
    },
    {
      "constant": true,
      "inputs": [],
      "name": "getTotalProposals",
      "outputs": [
        {
          "internalType": "uint256",
          "name": "",
          "type": "uint256"
        }
      ],
      "payable": false,
      "stateMutability": "view",
      "type": "function"
    },
    {
      "constant": true,
      "inputs": [],
      "name": "getWinningPluralityProposals",
      "outputs": [
        {
          "internalType": "bool[]",
          "name": "",
          "type": "bool[]"
        }
      ],
      "payable": false,
      "stateMutability": "view",
      "type": "function"
    },
    {
      "constant": true,
      "inputs": [
        {
          "internalType": "uint256",
          "name": "proposalNumber",
          "type": "uint256"
        }
      ],
      "name": "getProposalCount",
      "outputs": [
        {
          "internalType": "uint256[2]",
          "name": "totalCounts",
          "type": "uint256[2]"
        }
      ],
      "payable": false,
      "stateMutability": "view",
      "type": "function"
    }
  ],
  "bytecode": "0x60806040523480156200001157600080fd5b50604051620013c4380380620013c4833981810160405260208110156200003757600080fd5b810190808051906020019092919050505033600460006101000a81548173ffffffffffffffffffffffffffffffffffffffff021916908373ffffffffffffffffffffffffffffffffffffffff160217905550806000816200009991906200013c565b5080600181620000aa919062000171565b5060008090505b8181101562000134576000808281548110620000c957fe5b9060005260206000209060030201600001819055506000808281548110620000ed57fe5b90600052602060002090600302016001018190555060008082815481106200011157fe5b9060005260206000209060030201600201819055508080600101915050620000b1565b505062000210565b8154818355818111156200016c576003028160030283600052602060002091820191016200016b9190620001ae565b5b505050565b815481835581811115620001a957601f016020900481601f01602090048360005260206000209182019101620001a89190620001e8565b5b505050565b620001e591905b80821115620001e1576000808201600090556001820160009055600282016000905550600301620001b5565b5090565b90565b6200020d91905b8082111562000209576000816000905550600101620001ef565b5090565b90565b6111a480620002206000396000f3fe608060405234801561001057600080fd5b50600436106100a85760003560e01c80635ba41d9b116100715780635ba41d9b146101e757806362e1d1a714610205578063732d8cd3146102645780639eaee60e146102fd578063ad39b7eb14610307578063cb47d97614610351576100a8565b8062aa7464146100ad5780631a5007dd146100cb5780631ad845d0146100e95780634420e486146101395780634936c0f61461017d575b600080fd5b6100b5610409565b6040518082815260200191505060405180910390f35b6100d361040f565b6040518082815260200191505060405180910390f35b610115600480360360208110156100ff57600080fd5b8101908080359060200190929190505050610421565b60405180848152602001838152602001828152602001935050505060405180910390f35b61017b6004803603602081101561014f57600080fd5b81019080803573ffffffffffffffffffffffffffffffffffffffff169060200190929190505050610458565b005b6101a96004803603602081101561019357600080fd5b81019080803590602001909291905050506107be565b6040518082600260200280838360005b838110156101d45780820151818401526020810190506101b9565b5050505090500191505060405180910390f35b6101ef610838565b6040518082815260200191505060405180910390f35b61020d610842565b6040518080602001828103825283818151815260200191508051906020019060200280838360005b83811015610250578082015181840152602081019050610235565b505050509050019250505060405180910390f35b6102a66004803603602081101561027a57600080fd5b81019080803573ffffffffffffffffffffffffffffffffffffffff1690602001909291905050506108bf565b6040518080602001828103825283818151815260200191508051906020019060200280838360005b838110156102e95780820151818401526020810190506102ce565b505050509050019250505060405180910390f35b610305610a02565b005b61030f610bc8565b604051808273ffffffffffffffffffffffffffffffffffffffff1673ffffffffffffffffffffffffffffffffffffffff16815260200191505060405180910390f35b6104076004803603602081101561036757600080fd5b810190808035906020019064010000000081111561038457600080fd5b82018360208201111561039657600080fd5b803590602001918460208302840111640100000000831117156103b857600080fd5b919080806020026020016040519081016040528093929190818152602001838360200280828437600081840152601f19601f820116905080830192505050505050509192919290505050610bee565b005b60035481565b60008060008054905090508091505090565b6000818154811061042e57fe5b90600052602060002090600302016000915090508060000154908060010154908060020154905083565b600460009054906101000a900473ffffffffffffffffffffffffffffffffffffffff1673ffffffffffffffffffffffffffffffffffffffff163373ffffffffffffffffffffffffffffffffffffffff16146104fe576040517f08c379a000000000000000000000000000000000000000000000000000000000815260040180806020018281038252602b815260200180611115602b913960400191505060405180910390fd5b600073ffffffffffffffffffffffffffffffffffffffff16600260008373ffffffffffffffffffffffffffffffffffffffff1673ffffffffffffffffffffffffffffffffffffffff16815260200190815260200160002060010160009054906101000a900473ffffffffffffffffffffffffffffffffffffffff1673ffffffffffffffffffffffffffffffffffffffff1614610602576040517f08c379a000000000000000000000000000000000000000000000000000000000815260040180806020018281038252601c8152602001807f566f74657220697320616c726561647920726567697374657265642e0000000081525060200191505060405180910390fd5b80600260008373ffffffffffffffffffffffffffffffffffffffff1673ffffffffffffffffffffffffffffffffffffffff16815260200190815260200160002060010160006101000a81548173ffffffffffffffffffffffffffffffffffffffff021916908373ffffffffffffffffffffffffffffffffffffffff1602179055506000600260008373ffffffffffffffffffffffffffffffffffffffff1673ffffffffffffffffffffffffffffffffffffffff1681526020019081526020016000206000016000600281106106d357fe5b602091828204019190066101000a81548160ff021916908315150217905550600080549050600260008373ffffffffffffffffffffffffffffffffffffffff1673ffffffffffffffffffffffffffffffffffffffff168152602001908152602001600020600201816107459190610fbd565b506003600081548092919060010191905055507f2d3734a8e47ac8316e500ac231c90a6e1848ca2285f40d07eaa52005e4b3a0e981604051808273ffffffffffffffffffffffffffffffffffffffff1673ffffffffffffffffffffffffffffffffffffffff16815260200191505060405180910390a150565b6107c6610ff7565b600082815481106107d357fe5b906000526020600020906003020160010154816000600281106107f257fe5b6020020181815250506000828154811061080857fe5b9060005260206000209060030201600001548160016002811061082757fe5b602002018181525050809050919050565b6000600354905090565b606060018054806020026020016040519081016040528092919081815260200182805480156108b557602002820191906000526020600020906000905b82829054906101000a900460ff1615158152602001906001019060208260000104928301926001038202915080841161087f5790505b5050505050905090565b60608173ffffffffffffffffffffffffffffffffffffffff163373ffffffffffffffffffffffffffffffffffffffff1614610945576040517f08c379a00000000000000000000000000000000000000000000000000000000081526004018080602001828103825260308152602001806111406030913960400191505060405180910390fd5b600260008373ffffffffffffffffffffffffffffffffffffffff1673ffffffffffffffffffffffffffffffffffffffff1681526020019081526020016000206002018054806020026020016040519081016040528092919081815260200182805480156109f657602002820191906000526020600020906000905b82829054906101000a900460ff161515815260200190600101906020826000010492830192600103820291508084116109c05790505b50505050509050919050565b60008090505b600080549050811015610bc55760008181548110610a2257fe5b90600052602060002090600302016001015460008281548110610a4157fe5b9060005260206000209060030201600001540160008281548110610a6157fe5b90600052602060002090600302016002018190555060008181548110610a8357fe5b90600052602060002090600302016001015460008281548110610aa257fe5b9060005260206000209060030201600001541115610af6576001808281548110610ac857fe5b90600052602060002090602091828204019190066101000a81548160ff021916908315150217905550610b2f565b600060018281548110610b0557fe5b90600052602060002090602091828204019190066101000a81548160ff0219169083151502179055505b60008181548110610b3c57fe5b90600052602060002090600302016001015460008281548110610b5b57fe5b90600052602060002090600302016000015460008381548110610b7a57fe5b9060005260206000209060030201600201547f66293fb6726f2e125eccd9931110810ac5da2ad99a6633dd9cd4f2c94895d80660405160405180910390a48080600101915050610a08565b50565b600460009054906101000a900473ffffffffffffffffffffffffffffffffffffffff1681565b600073ffffffffffffffffffffffffffffffffffffffff16600260003373ffffffffffffffffffffffffffffffffffffffff1673ffffffffffffffffffffffffffffffffffffffff16815260200190815260200160002060010160009054906101000a900473ffffffffffffffffffffffffffffffffffffffff1673ffffffffffffffffffffffffffffffffffffffff161415610cf3576040517f08c379a00000000000000000000000000000000000000000000000000000000081526004018080602001828103825260188152602001807f566f746572206973206e6f7420726567697374657265642e000000000000000081525060200191505060405180910390fd5b6000801515600260003373ffffffffffffffffffffffffffffffffffffffff1673ffffffffffffffffffffffffffffffffffffffff1681526020019081526020016000206000018260028110610d4557fe5b602091828204019190069054906101000a900460ff16151514610dd0576040517f08c379a00000000000000000000000000000000000000000000000000000000081526004018080602001828103825260188152602001807f566f7465722068617320616c726561647920766f7465642e000000000000000081525060200191505060405180910390fd5b81600260003373ffffffffffffffffffffffffffffffffffffffff1673ffffffffffffffffffffffffffffffffffffffff1681526020019081526020016000206002019080519060200190610e26929190611019565b5060008090505b8251811015610ee65760001515838281518110610e4657fe5b602002602001015115151415610e895760008181548110610e6357fe5b906000526020600020906003020160010160008154809291906001019190505550610ed9565b60011515838281518110610e9957fe5b602002602001015115151415610ed85760008181548110610eb657fe5b9060005260206000209060030201600001600081548092919060010191905055505b5b8080600101915050610e2d565b506001600260003373ffffffffffffffffffffffffffffffffffffffff1673ffffffffffffffffffffffffffffffffffffffff168152602001908152602001600020600001600060028110610f3757fe5b602091828204019190066101000a81548160ff0219169083151502179055507fb87a61d78bd15221c59b983f6ef032fbde0631e66bfe18d1421fe5a73c16741d33604051808273ffffffffffffffffffffffffffffffffffffffff1673ffffffffffffffffffffffffffffffffffffffff16815260200191505060405180910390a15050565b815481835581811115610ff257601f016020900481601f01602090048360005260206000209182019101610ff191906110bf565b5b505050565b6040518060400160405280600290602082028038833980820191505090505090565b82805482825590600052602060002090601f016020900481019282156110ae5791602002820160005b8382111561107f57835183826101000a81548160ff0219169083151502179055509260200192600101602081600001049283019260010302611042565b80156110ac5782816101000a81549060ff021916905560010160208160000104928301926001030261107f565b505b5090506110bb91906110e4565b5090565b6110e191905b808211156110dd5760008160009055506001016110c5565b5090565b90565b61111191905b8082111561110d57600081816101000a81549060ff0219169055506001016110ea565b5090565b9056fe596f7520617265206e6f7420617574686f72697a656420746f2074616b65207468697320616374696f6e2e596f7520617265206e6f7420617574686f72697a656420746f2076696577207468697320696e666f726d6174696f6e2ea265627a7a72315820b3c9c9afb8bf7580018a0bdf7308a74efaa7ac131fc1708fefaf039310c89bca64736f6c63430005100032",
  "source": "pragma solidity >=0.4.22 <0.8.0;\r\n// pragma experimental ABIEncoderV2;\r\n\r\ncontract Plurality {\r\n  /* VARIABLES */\r\n  //STRUCTS\r\n  struct PluralityProposal {\r\n    uint yesCount;\r\n    uint noCount;\r\n    uint totalVotes;\r\n  }\r\n\r\n  struct Voter {\r\n    bool[2] voted;\r\n    address voterAddress;\r\n    bool[] pluralityChoices;\r\n  }\r\n\r\n  //Arrays\r\n  PluralityProposal[] public pluralityProposals;\r\n  bool[] winningPluralityProposals;\r\n\r\n  //MAPPING\r\n  mapping(address => Voter) voters;\r\n\r\n  //UINTS\r\n  uint public totalRegisteredVoters;\r\n\r\n  //ADDRESSES\r\n  address public electionOfficial;\r\n\r\n  //EVENTS\r\n  event VoteCast(address _voter);\r\n  event Registered(address _voter);\r\n  event VotesCounted(uint indexed _totalVotes, uint indexed _yesCount, uint indexed _noCount);\r\n\r\n  /* MODIFIERS */\r\n  modifier onlyOfficial() {\r\n    require(\r\n      msg.sender == electionOfficial,\r\n      \"You are not authorized to take this action.\"\r\n    );\r\n    _;\r\n  }\r\n\r\n  modifier isRegisteredVoter() {\r\n    require(\r\n      voters[msg.sender].voterAddress != address(0),\r\n      \"Voter is not registered.\"\r\n    );\r\n    _;\r\n  }\r\n\r\n  modifier hasNotVoted(uint voteType) {\r\n    require(voters[msg.sender].voted[voteType] == false, \"Voter has already voted.\");\r\n    _;\r\n  }\r\n\r\n  /* FUNCTIONS */\r\n  //CONSTRUCTOR\r\n  constructor(uint _numOfPlurality) public {\r\n    electionOfficial = msg.sender;\r\n\r\n    pluralityProposals.length = _numOfPlurality;\r\n    winningPluralityProposals.length = _numOfPlurality;\r\n\r\n    for (uint i = 0; i < _numOfPlurality; i++) {\r\n      pluralityProposals[i].yesCount = 0;\r\n      pluralityProposals[i].noCount = 0;\r\n      pluralityProposals[i].totalVotes = 0;\r\n    }\r\n\r\n  }\r\n\r\n  //ELECTION SETUP FUNCTIONS\r\n  function register(address registeringVoter) public onlyOfficial {\r\n    //Check if the voter is already registered based on their address\r\n    if (voters[registeringVoter].voterAddress != address(0)) revert(\"Voter is already registered.\");\r\n\r\n    voters[registeringVoter].voterAddress = registeringVoter;\r\n    voters[registeringVoter].voted[0] = false;\r\n    voters[registeringVoter].pluralityChoices.length = pluralityProposals.length;\r\n    totalRegisteredVoters++;\r\n    emit Registered(registeringVoter);\r\n  }\r\n\r\n  //VOTING FUNCTIONS\r\n  function pluralityVote(bool[] memory pluralityChoices)\r\n    public\r\n    isRegisteredVoter\r\n    hasNotVoted(0)\r\n  {\r\n    voters[msg.sender].pluralityChoices = pluralityChoices;\r\n\r\n    for (uint index = 0; index < pluralityChoices.length; index++) {\r\n      if (pluralityChoices[index] == false) {\r\n        pluralityProposals[index].noCount++;\r\n      } else if (pluralityChoices[index] == true) {\r\n        pluralityProposals[index].yesCount++;\r\n      }\r\n    }\r\n    voters[msg.sender].voted[0] = true;\r\n    emit VoteCast(msg.sender);\r\n  }\r\n\r\n  function countPluralityProposals()\r\n    public\r\n  {\r\n    for (uint index = 0; index < pluralityProposals.length; index++) {\r\n      pluralityProposals[index].totalVotes = pluralityProposals[index].yesCount + pluralityProposals[index].noCount;\r\n      if (\r\n        pluralityProposals[index].yesCount > pluralityProposals[index].noCount\r\n      ) {\r\n        winningPluralityProposals[index] = true;\r\n      } else {\r\n        winningPluralityProposals[index] = false;\r\n      }\r\n        emit VotesCounted(pluralityProposals[index].totalVotes, pluralityProposals[index].yesCount, pluralityProposals[index].noCount);\r\n    }\r\n  }\r\n  //AUDITING FUNCTIONS\r\n  function countRegisteredVoters() public view returns (uint) {\r\n    return totalRegisteredVoters;\r\n  }\r\n    function getPluralityChoices(address voter)\r\n    public\r\n    view\r\n    returns (bool[] memory)\r\n  {\r\n    if (msg.sender != voter) revert(\"You are not authorized to view this information.\");\r\n    return voters[voter].pluralityChoices;\r\n  }\r\n\r\n  function getTotalProposals() public view returns (uint) {\r\n    uint count = pluralityProposals.length;\r\n    return count;\r\n  }\r\n  function getWinningPluralityProposals() public view returns(bool[] memory){\r\n    return winningPluralityProposals;\r\n  }\r\n  function getProposalCount(uint proposalNumber)\r\n    public\r\n    view\r\n    returns (uint[2] memory totalCounts)\r\n  {\r\n    totalCounts[0] = pluralityProposals[proposalNumber].noCount;\r\n    totalCounts[1] = pluralityProposals[proposalNumber].yesCount;\r\n\r\n    return totalCounts;\r\n  }\r\n}\r\n",
  "sourcePath": "C:/Users/ChyChy/Coding/Personal/voting-dapp/smart-contract/contracts/Plurality.sol",
  "compiler": {
    "name": "solc",
    "version": "0.5.16+commit.9c3226ce.Emscripten.clang"
  },
  "schemaVersion": "3.2.5",
  "updatedAt": "2021-02-18T23:07:22.564Z",
  "networkType": "ethereum",
  "devdoc": {
    "methods": {}
  },
  "userdoc": {
    "methods": {}
  }
}