{
  "contractName": "Plurality",
  "abi": [
    {
      "inputs": [
        {
          "internalType": "uint256",
          "name": "_numOfPlurality",
          "type": "uint256"
        }
      ],
      "payable": false,
      "stateMutability": "nonpayable",
      "type": "constructor"
    },
    {
      "anonymous": false,
      "inputs": [
        {
          "indexed": false,
          "internalType": "address",
          "name": "_voter",
          "type": "address"
        }
      ],
      "name": "Registered",
      "type": "event"
    },
    {
      "anonymous": false,
      "inputs": [
        {
          "indexed": false,
          "internalType": "address",
          "name": "_voter",
          "type": "address"
        }
      ],
      "name": "VoteCast",
      "type": "event"
    },
    {
      "anonymous": false,
      "inputs": [
        {
          "indexed": true,
          "internalType": "uint256",
          "name": "_totalVotes",
          "type": "uint256"
        },
        {
          "indexed": true,
          "internalType": "uint256",
          "name": "_yesCount",
          "type": "uint256"
        },
        {
          "indexed": true,
          "internalType": "uint256",
          "name": "_noCount",
          "type": "uint256"
        }
      ],
      "name": "VotesCounted",
      "type": "event"
    },
    {
      "constant": false,
      "inputs": [
        {
          "internalType": "address",
          "name": "registeringVoter",
          "type": "address"
        }
      ],
      "name": "register",
      "outputs": [],
      "payable": false,
      "stateMutability": "nonpayable",
      "type": "function"
    },
    {
      "constant": false,
      "inputs": [
        {
          "internalType": "bool[]",
          "name": "pluralityChoices",
          "type": "bool[]"
        }
      ],
      "name": "pluralityVote",
      "outputs": [],
      "payable": false,
      "stateMutability": "nonpayable",
      "type": "function"
    },
    {
      "constant": false,
      "inputs": [],
      "name": "countPluralityProposals",
      "outputs": [],
      "payable": false,
      "stateMutability": "nonpayable",
      "type": "function"
    },
    {
      "constant": true,
      "inputs": [],
      "name": "getElectionOfficial",
      "outputs": [
        {
          "internalType": "address",
          "name": "",
          "type": "address"
        }
      ],
      "payable": false,
      "stateMutability": "view",
      "type": "function"
    },
    {
      "constant": true,
      "inputs": [],
      "name": "countRegisteredVoters",
      "outputs": [
        {
          "internalType": "uint256",
          "name": "",
          "type": "uint256"
        }
      ],
      "payable": false,
      "stateMutability": "view",
      "type": "function"
    },
    {
      "constant": true,
      "inputs": [],
      "name": "getTotalProposals",
      "outputs": [
        {
          "internalType": "uint256",
          "name": "",
          "type": "uint256"
        }
      ],
      "payable": false,
      "stateMutability": "view",
      "type": "function"
    },
    {
      "constant": true,
      "inputs": [
        {
          "internalType": "address",
          "name": "voter",
          "type": "address"
        }
      ],
      "name": "getPluralityChoices",
      "outputs": [
        {
          "internalType": "bool[]",
          "name": "",
          "type": "bool[]"
        }
      ],
      "payable": false,
      "stateMutability": "view",
      "type": "function"
    },
    {
      "constant": true,
      "inputs": [],
      "name": "getWinningPluralityProposals",
      "outputs": [
        {
          "internalType": "bool[]",
          "name": "",
          "type": "bool[]"
        }
      ],
      "payable": false,
      "stateMutability": "view",
      "type": "function"
    },
    {
      "constant": true,
      "inputs": [
        {
          "internalType": "uint256",
          "name": "proposalNumber",
          "type": "uint256"
        }
      ],
      "name": "getProposalCount",
      "outputs": [
        {
          "internalType": "uint256[2]",
          "name": "totalCounts",
          "type": "uint256[2]"
        }
      ],
      "payable": false,
      "stateMutability": "view",
      "type": "function"
    }
  ],
  "bytecode": "0x60806040523480156200001157600080fd5b50604051620013a9380380620013a9833981810160405260208110156200003757600080fd5b810190808051906020019092919050505033600460006101000a81548173ffffffffffffffffffffffffffffffffffffffff021916908373ffffffffffffffffffffffffffffffffffffffff160217905550806000816200009991906200013c565b5080600181620000aa919062000171565b5060008090505b8181101562000134576000808281548110620000c957fe5b9060005260206000209060030201600001819055506000808281548110620000ed57fe5b90600052602060002090600302016001018190555060008082815481106200011157fe5b9060005260206000209060030201600201819055508080600101915050620000b1565b505062000210565b8154818355818111156200016c576003028160030283600052602060002091820191016200016b9190620001ae565b5b505050565b815481835581811115620001a957601f016020900481601f01602090048360005260206000209182019101620001a89190620001e8565b5b505050565b620001e591905b80821115620001e1576000808201600090556001820160009055600282016000905550600301620001b5565b5090565b90565b6200020d91905b8082111562000209576000816000905550600101620001ef565b5090565b90565b61118980620002206000396000f3fe608060405234801561001057600080fd5b50600436106100935760003560e01c806362e1d1a71161006657806362e1d1a714610182578063732d8cd3146101e15780637d8e1a291461027a5780639eaee60e146102c4578063cb47d976146102ce57610093565b80631a5007dd146100985780634420e486146100b65780634936c0f6146100fa5780635ba41d9b14610164575b600080fd5b6100a0610386565b6040518082815260200191505060405180910390f35b6100f8600480360360208110156100cc57600080fd5b81019080803573ffffffffffffffffffffffffffffffffffffffff169060200190929190505050610398565b005b6101266004803603602081101561011057600080fd5b81019080803590602001909291905050506106fe565b6040518082600260200280838360005b83811015610151578082015181840152602081019050610136565b5050505090500191505060405180910390f35b61016c610778565b6040518082815260200191505060405180910390f35b61018a610782565b6040518080602001828103825283818151815260200191508051906020019060200280838360005b838110156101cd5780820151818401526020810190506101b2565b505050509050019250505060405180910390f35b610223600480360360208110156101f757600080fd5b81019080803573ffffffffffffffffffffffffffffffffffffffff1690602001909291905050506107ff565b6040518080602001828103825283818151815260200191508051906020019060200280838360005b8381101561026657808201518184015260208101905061024b565b505050509050019250505060405180910390f35b610282610942565b604051808273ffffffffffffffffffffffffffffffffffffffff1673ffffffffffffffffffffffffffffffffffffffff16815260200191505060405180910390f35b6102cc61096c565b005b610384600480360360208110156102e457600080fd5b810190808035906020019064010000000081111561030157600080fd5b82018360208201111561031357600080fd5b8035906020019184602083028401116401000000008311171561033557600080fd5b919080806020026020016040519081016040528093929190818152602001838360200280828437600081840152601f19601f820116905080830192505050505050509192919290505050610b32565b005b60008060008054905090508091505090565b600460009054906101000a900473ffffffffffffffffffffffffffffffffffffffff1673ffffffffffffffffffffffffffffffffffffffff163373ffffffffffffffffffffffffffffffffffffffff161461043e576040517f08c379a000000000000000000000000000000000000000000000000000000000815260040180806020018281038252602b8152602001806110fa602b913960400191505060405180910390fd5b600073ffffffffffffffffffffffffffffffffffffffff16600260008373ffffffffffffffffffffffffffffffffffffffff1673ffffffffffffffffffffffffffffffffffffffff16815260200190815260200160002060010160009054906101000a900473ffffffffffffffffffffffffffffffffffffffff1673ffffffffffffffffffffffffffffffffffffffff1614610542576040517f08c379a000000000000000000000000000000000000000000000000000000000815260040180806020018281038252601c8152602001807f566f74657220697320616c726561647920726567697374657265642e0000000081525060200191505060405180910390fd5b80600260008373ffffffffffffffffffffffffffffffffffffffff1673ffffffffffffffffffffffffffffffffffffffff16815260200190815260200160002060010160006101000a81548173ffffffffffffffffffffffffffffffffffffffff021916908373ffffffffffffffffffffffffffffffffffffffff1602179055506000600260008373ffffffffffffffffffffffffffffffffffffffff1673ffffffffffffffffffffffffffffffffffffffff16815260200190815260200160002060000160006002811061061357fe5b602091828204019190066101000a81548160ff021916908315150217905550600080549050600260008373ffffffffffffffffffffffffffffffffffffffff1673ffffffffffffffffffffffffffffffffffffffff168152602001908152602001600020600201816106859190610f61565b506003600081548092919060010191905055507f2d3734a8e47ac8316e500ac231c90a6e1848ca2285f40d07eaa52005e4b3a0e981604051808273ffffffffffffffffffffffffffffffffffffffff1673ffffffffffffffffffffffffffffffffffffffff16815260200191505060405180910390a150565b610706610f9b565b6000828154811061071357fe5b9060005260206000209060030201600101548160006002811061073257fe5b6020020181815250506000828154811061074857fe5b9060005260206000209060030201600001548160016002811061076757fe5b602002018181525050809050919050565b6000600354905090565b606060018054806020026020016040519081016040528092919081815260200182805480156107f557602002820191906000526020600020906000905b82829054906101000a900460ff161515815260200190600101906020826000010492830192600103820291508084116107bf5790505b5050505050905090565b60608173ffffffffffffffffffffffffffffffffffffffff163373ffffffffffffffffffffffffffffffffffffffff1614610885576040517f08c379a00000000000000000000000000000000000000000000000000000000081526004018080602001828103825260308152602001806111256030913960400191505060405180910390fd5b600260008373ffffffffffffffffffffffffffffffffffffffff1673ffffffffffffffffffffffffffffffffffffffff16815260200190815260200160002060020180548060200260200160405190810160405280929190818152602001828054801561093657602002820191906000526020600020906000905b82829054906101000a900460ff161515815260200190600101906020826000010492830192600103820291508084116109005790505b50505050509050919050565b6000600460009054906101000a900473ffffffffffffffffffffffffffffffffffffffff16905090565b60008090505b600080549050811015610b2f576000818154811061098c57fe5b906000526020600020906003020160010154600082815481106109ab57fe5b90600052602060002090600302016000015401600082815481106109cb57fe5b906000526020600020906003020160020181905550600081815481106109ed57fe5b90600052602060002090600302016001015460008281548110610a0c57fe5b9060005260206000209060030201600001541115610a60576001808281548110610a3257fe5b90600052602060002090602091828204019190066101000a81548160ff021916908315150217905550610a99565b600060018281548110610a6f57fe5b90600052602060002090602091828204019190066101000a81548160ff0219169083151502179055505b60008181548110610aa657fe5b90600052602060002090600302016001015460008281548110610ac557fe5b90600052602060002090600302016000015460008381548110610ae457fe5b9060005260206000209060030201600201547f66293fb6726f2e125eccd9931110810ac5da2ad99a6633dd9cd4f2c94895d80660405160405180910390a48080600101915050610972565b50565b600073ffffffffffffffffffffffffffffffffffffffff16600260003373ffffffffffffffffffffffffffffffffffffffff1673ffffffffffffffffffffffffffffffffffffffff16815260200190815260200160002060010160009054906101000a900473ffffffffffffffffffffffffffffffffffffffff1673ffffffffffffffffffffffffffffffffffffffff161415610c37576040517f08c379a00000000000000000000000000000000000000000000000000000000081526004018080602001828103825260188152602001807f566f746572206973206e6f7420726567697374657265642e000000000000000081525060200191505060405180910390fd5b6000801515600260003373ffffffffffffffffffffffffffffffffffffffff1673ffffffffffffffffffffffffffffffffffffffff1681526020019081526020016000206000018260028110610c8957fe5b602091828204019190069054906101000a900460ff16151514610d14576040517f08c379a00000000000000000000000000000000000000000000000000000000081526004018080602001828103825260188152602001807f566f7465722068617320616c726561647920766f7465642e000000000000000081525060200191505060405180910390fd5b81600080549050815114610d73576040517f08c379a00000000000000000000000000000000000000000000000000000000081526004018080602001828103825260418152602001806110b96041913960600191505060405180910390fd5b82600260003373ffffffffffffffffffffffffffffffffffffffff1673ffffffffffffffffffffffffffffffffffffffff1681526020019081526020016000206002019080519060200190610dc9929190610fbd565b5060008090505b8351811015610e895760001515848281518110610de957fe5b602002602001015115151415610e2c5760008181548110610e0657fe5b906000526020600020906003020160010160008154809291906001019190505550610e7c565b60011515848281518110610e3c57fe5b602002602001015115151415610e7b5760008181548110610e5957fe5b9060005260206000209060030201600001600081548092919060010191905055505b5b8080600101915050610dd0565b506001600260003373ffffffffffffffffffffffffffffffffffffffff1673ffffffffffffffffffffffffffffffffffffffff168152602001908152602001600020600001600060028110610eda57fe5b602091828204019190066101000a81548160ff0219169083151502179055507fb87a61d78bd15221c59b983f6ef032fbde0631e66bfe18d1421fe5a73c16741d33604051808273ffffffffffffffffffffffffffffffffffffffff1673ffffffffffffffffffffffffffffffffffffffff16815260200191505060405180910390a1505050565b815481835581811115610f9657601f016020900481601f01602090048360005260206000209182019101610f959190611063565b5b505050565b6040518060400160405280600290602082028038833980820191505090505090565b82805482825590600052602060002090601f016020900481019282156110525791602002820160005b8382111561102357835183826101000a81548160ff0219169083151502179055509260200192600101602081600001049283019260010302610fe6565b80156110505782816101000a81549060ff0219169055600101602081600001049283019260010302611023565b505b50905061105f9190611088565b5090565b61108591905b80821115611081576000816000905550600101611069565b5090565b90565b6110b591905b808211156110b157600081816101000a81549060ff02191690555060010161108e565b5090565b9056fe496e636f727265637420666f726d61742e20506c6561736520656e7375726520616c6c2070726f706f73616c732068617665206265656e20766f746564206f6e2e596f7520617265206e6f7420617574686f72697a656420746f2074616b65207468697320616374696f6e2e596f7520617265206e6f7420617574686f72697a656420746f2076696577207468697320696e666f726d6174696f6e2ea265627a7a7231582025e35c60173fb2ec71c320dc2150a1965d939fbe57c6d73443d5c2d09c29704e64736f6c63430005100032",
  "source": "pragma solidity >=0.4.22 <0.8.0;\r\n\r\n// pragma experimental ABIEncoderV2;\r\n\r\ncontract Plurality {\r\n  /* VARIABLES */\r\n  //STRUCTS\r\n  struct PluralityProposal {\r\n    uint256 yesCount;\r\n    uint256 noCount;\r\n    uint256 totalVotes;\r\n  }\r\n\r\n  struct Voter {\r\n    bool[2] voted;\r\n    address voterAddress;\r\n    bool[] pluralityChoices;\r\n  }\r\n\r\n  //Arrays\r\n  PluralityProposal[] pluralityProposals;\r\n  bool[] winningPluralityProposals;\r\n\r\n  //MAPPING\r\n  mapping(address => Voter) voters;\r\n\r\n  //UINTS\r\n  uint256 totalRegisteredVoters;\r\n\r\n  //ADDRESSES\r\n  address electionOfficial;\r\n\r\n  //EVENTS\r\n  event VoteCast(address _voter);\r\n  event Registered(address _voter);\r\n  event VotesCounted(\r\n    uint256 indexed _totalVotes,\r\n    uint256 indexed _yesCount,\r\n    uint256 indexed _noCount\r\n  );\r\n\r\n  /* MODIFIERS */\r\n  modifier onlyOfficial() {\r\n    require(\r\n      msg.sender == electionOfficial,\r\n      \"You are not authorized to take this action.\"\r\n    );\r\n    _;\r\n  }\r\n\r\n  modifier isRegisteredVoter() {\r\n    require(\r\n      voters[msg.sender].voterAddress != address(0),\r\n      \"Voter is not registered.\"\r\n    );\r\n    _;\r\n  }\r\n\r\n  modifier hasNotVoted(uint256 voteType) {\r\n    require(\r\n      voters[msg.sender].voted[voteType] == false,\r\n      \"Voter has already voted.\"\r\n    );\r\n    _;\r\n  }\r\n  modifier correctVotingFormat(bool[] memory choices) {\r\n    require(\r\n      choices.length == pluralityProposals.length,\r\n      \"Incorrect format. Please ensure all proposals have been voted on.\"\r\n    );\r\n    _;\r\n  }\r\n\r\n  /* FUNCTIONS */\r\n  //CONSTRUCTOR\r\n  constructor(uint256 _numOfPlurality) public {\r\n    electionOfficial = msg.sender;\r\n\r\n    pluralityProposals.length = _numOfPlurality;\r\n    winningPluralityProposals.length = _numOfPlurality;\r\n\r\n    for (uint256 i = 0; i < _numOfPlurality; i++) {\r\n      pluralityProposals[i].yesCount = 0;\r\n      pluralityProposals[i].noCount = 0;\r\n      pluralityProposals[i].totalVotes = 0;\r\n    }\r\n  }\r\n\r\n  //ELECTION SETUP FUNCTIONS\r\n  function register(address registeringVoter) public onlyOfficial {\r\n    //Check if the voter is already registered based on their address\r\n    if (voters[registeringVoter].voterAddress != address(0))\r\n      revert(\"Voter is already registered.\");\r\n\r\n    voters[registeringVoter].voterAddress = registeringVoter;\r\n    voters[registeringVoter].voted[0] = false;\r\n    voters[registeringVoter].pluralityChoices.length = pluralityProposals\r\n      .length;\r\n    totalRegisteredVoters++;\r\n    emit Registered(registeringVoter);\r\n  }\r\n\r\n  //VOTING FUNCTIONS\r\n  function pluralityVote(bool[] memory pluralityChoices)\r\n    public\r\n    isRegisteredVoter\r\n    hasNotVoted(0)\r\n    correctVotingFormat(pluralityChoices)\r\n  {\r\n    voters[msg.sender].pluralityChoices = pluralityChoices;\r\n\r\n    for (uint256 index = 0; index < pluralityChoices.length; index++) {\r\n      if (pluralityChoices[index] == false) {\r\n        pluralityProposals[index].noCount++;\r\n      } else if (pluralityChoices[index] == true) {\r\n        pluralityProposals[index].yesCount++;\r\n      }\r\n    }\r\n    voters[msg.sender].voted[0] = true;\r\n    emit VoteCast(msg.sender);\r\n  }\r\n\r\n  function countPluralityProposals() public {\r\n    for (uint256 index = 0; index < pluralityProposals.length; index++) {\r\n      pluralityProposals[index].totalVotes =\r\n        pluralityProposals[index].yesCount +\r\n        pluralityProposals[index].noCount;\r\n      if (\r\n        pluralityProposals[index].yesCount > pluralityProposals[index].noCount\r\n      ) {\r\n        winningPluralityProposals[index] = true;\r\n      } else {\r\n        winningPluralityProposals[index] = false;\r\n      }\r\n      emit VotesCounted(\r\n        pluralityProposals[index].totalVotes,\r\n        pluralityProposals[index].yesCount,\r\n        pluralityProposals[index].noCount\r\n      );\r\n    }\r\n  }\r\n\r\n  //AUDITING FUNCTIONS\r\n  function getElectionOfficial() public view returns (address) {\r\n    return electionOfficial;\r\n  }\r\n\r\n  function countRegisteredVoters() public view returns (uint256) {\r\n    return totalRegisteredVoters;\r\n  }\r\n\r\n  \r\n  function getTotalProposals() public view returns (uint256) {\r\n    uint256 count = pluralityProposals.length;\r\n    return count;\r\n  }\r\n\r\n  function getPluralityChoices(address voter)\r\n    public\r\n    view\r\n    returns (bool[] memory)\r\n  {\r\n    if (msg.sender != voter)\r\n      revert(\"You are not authorized to view this information.\");\r\n    return voters[voter].pluralityChoices;\r\n  }\r\n\r\n  function getWinningPluralityProposals() public view returns (bool[] memory) {\r\n    return winningPluralityProposals;\r\n  }\r\n\r\n  function getProposalCount(uint256 proposalNumber)\r\n    public\r\n    view\r\n    returns (uint256[2] memory totalCounts)\r\n  {\r\n    totalCounts[0] = pluralityProposals[proposalNumber].noCount;\r\n    totalCounts[1] = pluralityProposals[proposalNumber].yesCount;\r\n\r\n    return totalCounts;\r\n  }\r\n}\r\n",
  "sourcePath": "C:/Users/ChyChy/Coding/Personal/voting-dapp/smart-contract/contracts/Plurality.sol",
  "compiler": {
    "name": "solc",
    "version": "0.5.16+commit.9c3226ce.Emscripten.clang"
  },
  "schemaVersion": "3.2.5",
  "updatedAt": "2021-03-02T18:33:51.461Z",
  "networkType": "ethereum",
  "devdoc": {
    "methods": {}
  },
  "userdoc": {
    "methods": {}
  }
}