{
  "contractName": "Voting",
  "abi": [
    {
      "inputs": [
        {
          "internalType": "uint256",
          "name": "_numOfProposals",
          "type": "uint256"
        }
      ],
      "payable": false,
      "stateMutability": "nonpayable",
      "type": "constructor"
    },
    {
      "anonymous": false,
      "inputs": [
        {
          "indexed": false,
          "internalType": "address",
          "name": "_voter",
          "type": "address"
        }
      ],
      "name": "Registered",
      "type": "event"
    },
    {
      "anonymous": false,
      "inputs": [
        {
          "indexed": false,
          "internalType": "address",
          "name": "_voter",
          "type": "address"
        }
      ],
      "name": "VoteCast",
      "type": "event"
    },
    {
      "anonymous": false,
      "inputs": [
        {
          "indexed": true,
          "internalType": "uint256",
          "name": "_totalVotes",
          "type": "uint256"
        },
        {
          "indexed": true,
          "internalType": "uint256",
          "name": "_yesCount",
          "type": "uint256"
        },
        {
          "indexed": true,
          "internalType": "uint256",
          "name": "_noCount",
          "type": "uint256"
        }
      ],
      "name": "VotesCounted",
      "type": "event"
    },
    {
      "constant": false,
      "inputs": [
        {
          "internalType": "address",
          "name": "registeringVoter",
          "type": "address"
        }
      ],
      "name": "register",
      "outputs": [],
      "payable": false,
      "stateMutability": "nonpayable",
      "type": "function"
    },
    {
      "constant": false,
      "inputs": [
        {
          "internalType": "bool[]",
          "name": "choices",
          "type": "bool[]"
        }
      ],
      "name": "vote",
      "outputs": [],
      "payable": false,
      "stateMutability": "nonpayable",
      "type": "function"
    },
    {
      "constant": false,
      "inputs": [],
      "name": "countProposals",
      "outputs": [],
      "payable": false,
      "stateMutability": "nonpayable",
      "type": "function"
    },
    {
      "constant": true,
      "inputs": [],
      "name": "getElectionOfficial",
      "outputs": [
        {
          "internalType": "address",
          "name": "",
          "type": "address"
        }
      ],
      "payable": false,
      "stateMutability": "view",
      "type": "function"
    },
    {
      "constant": true,
      "inputs": [],
      "name": "countRegisteredVoters",
      "outputs": [
        {
          "internalType": "uint256",
          "name": "",
          "type": "uint256"
        }
      ],
      "payable": false,
      "stateMutability": "view",
      "type": "function"
    },
    {
      "constant": true,
      "inputs": [],
      "name": "getTotalProposals",
      "outputs": [
        {
          "internalType": "uint256",
          "name": "",
          "type": "uint256"
        }
      ],
      "payable": false,
      "stateMutability": "view",
      "type": "function"
    },
    {
      "constant": true,
      "inputs": [
        {
          "internalType": "address",
          "name": "voter",
          "type": "address"
        }
      ],
      "name": "getChoices",
      "outputs": [
        {
          "internalType": "bool[]",
          "name": "",
          "type": "bool[]"
        }
      ],
      "payable": false,
      "stateMutability": "view",
      "type": "function"
    },
    {
      "constant": true,
      "inputs": [],
      "name": "getWinningProposals",
      "outputs": [
        {
          "internalType": "bool[]",
          "name": "",
          "type": "bool[]"
        }
      ],
      "payable": false,
      "stateMutability": "view",
      "type": "function"
    },
    {
      "constant": true,
      "inputs": [
        {
          "internalType": "uint256",
          "name": "proposalNumber",
          "type": "uint256"
        }
      ],
      "name": "getProposalCount",
      "outputs": [
        {
          "internalType": "uint256[2]",
          "name": "totalCounts",
          "type": "uint256[2]"
        }
      ],
      "payable": false,
      "stateMutability": "view",
      "type": "function"
    }
  ],
  "bytecode": "0x60806040523480156200001157600080fd5b506040516200136c3803806200136c833981810160405260208110156200003757600080fd5b810190808051906020019092919050505033600460006101000a81548173ffffffffffffffffffffffffffffffffffffffff021916908373ffffffffffffffffffffffffffffffffffffffff160217905550806000816200009991906200013c565b5080600181620000aa919062000171565b5060008090505b8181101562000134576000808281548110620000c957fe5b9060005260206000209060030201600001819055506000808281548110620000ed57fe5b90600052602060002090600302016001018190555060008082815481106200011157fe5b9060005260206000209060030201600201819055508080600101915050620000b1565b505062000210565b8154818355818111156200016c576003028160030283600052602060002091820191016200016b9190620001ae565b5b505050565b815481835581811115620001a957601f016020900481601f01602090048360005260206000209182019101620001a89190620001e8565b5b505050565b620001e591905b80821115620001e1576000808201600090556001820160009055600282016000905550600301620001b5565b5090565b90565b6200020d91905b8082111562000209576000816000905550600101620001ef565b5090565b90565b61114c80620002206000396000f3fe608060405234801561001057600080fd5b50600436106100935760003560e01c8063523d532211610066578063523d5322146101fd5780635ba41d9b146102b5578063761bbd8a146102d35780637d8e1a29146102dd578063ef788cd51461032757610093565b8063090df644146100985780631a5007dd146101315780634420e4861461014f5780634936c0f614610193575b600080fd5b6100da600480360360208110156100ae57600080fd5b81019080803573ffffffffffffffffffffffffffffffffffffffff169060200190929190505050610386565b6040518080602001828103825283818151815260200191508051906020019060200280838360005b8381101561011d578082015181840152602081019050610102565b505050509050019250505060405180910390f35b6101396104c9565b6040518082815260200191505060405180910390f35b6101916004803603602081101561016557600080fd5b81019080803573ffffffffffffffffffffffffffffffffffffffff1690602001909291905050506104db565b005b6101bf600480360360208110156101a957600080fd5b810190808035906020019092919050505061082d565b6040518082600260200280838360005b838110156101ea5780820151818401526020810190506101cf565b5050505090500191505060405180910390f35b6102b36004803603602081101561021357600080fd5b810190808035906020019064010000000081111561023057600080fd5b82018360208201111561024257600080fd5b8035906020019184602083028401116401000000008311171561026457600080fd5b919080806020026020016040519081016040528093929190818152602001838360200280828437600081840152601f19601f8201169050808301925050505050505091929192905050506108a7565b005b6102bd610cad565b6040518082815260200191505060405180910390f35b6102db610cb7565b005b6102e5610e7d565b604051808273ffffffffffffffffffffffffffffffffffffffff1673ffffffffffffffffffffffffffffffffffffffff16815260200191505060405180910390f35b61032f610ea7565b6040518080602001828103825283818151815260200191508051906020019060200280838360005b83811015610372578082015181840152602081019050610357565b505050509050019250505060405180910390f35b60608173ffffffffffffffffffffffffffffffffffffffff163373ffffffffffffffffffffffffffffffffffffffff161461040c576040517f08c379a00000000000000000000000000000000000000000000000000000000081526004018080602001828103825260308152602001806110e86030913960400191505060405180910390fd5b600260008373ffffffffffffffffffffffffffffffffffffffff1673ffffffffffffffffffffffffffffffffffffffff1681526020019081526020016000206001018054806020026020016040519081016040528092919081815260200182805480156104bd57602002820191906000526020600020906000905b82829054906101000a900460ff161515815260200190600101906020826000010492830192600103820291508084116104875790505b50505050509050919050565b60008060008054905090508091505090565b600460009054906101000a900473ffffffffffffffffffffffffffffffffffffffff1673ffffffffffffffffffffffffffffffffffffffff163373ffffffffffffffffffffffffffffffffffffffff1614610581576040517f08c379a000000000000000000000000000000000000000000000000000000000815260040180806020018281038252602b8152602001806110bd602b913960400191505060405180910390fd5b600073ffffffffffffffffffffffffffffffffffffffff16600260008373ffffffffffffffffffffffffffffffffffffffff1673ffffffffffffffffffffffffffffffffffffffff16815260200190815260200160002060000160019054906101000a900473ffffffffffffffffffffffffffffffffffffffff1673ffffffffffffffffffffffffffffffffffffffff1614610685576040517f08c379a000000000000000000000000000000000000000000000000000000000815260040180806020018281038252601c8152602001807f566f74657220697320616c726561647920726567697374657265642e0000000081525060200191505060405180910390fd5b80600260008373ffffffffffffffffffffffffffffffffffffffff1673ffffffffffffffffffffffffffffffffffffffff16815260200190815260200160002060000160016101000a81548173ffffffffffffffffffffffffffffffffffffffff021916908373ffffffffffffffffffffffffffffffffffffffff1602179055506000600260008373ffffffffffffffffffffffffffffffffffffffff1673ffffffffffffffffffffffffffffffffffffffff16815260200190815260200160002060000160006101000a81548160ff021916908315150217905550600080549050600260008373ffffffffffffffffffffffffffffffffffffffff1673ffffffffffffffffffffffffffffffffffffffff168152602001908152602001600020600101816107b49190610f24565b506003600081548092919060010191905055507f2d3734a8e47ac8316e500ac231c90a6e1848ca2285f40d07eaa52005e4b3a0e981604051808273ffffffffffffffffffffffffffffffffffffffff1673ffffffffffffffffffffffffffffffffffffffff16815260200191505060405180910390a150565b610835610f5e565b6000828154811061084257fe5b9060005260206000209060030201600101548160006002811061086157fe5b6020020181815250506000828154811061087757fe5b9060005260206000209060030201600001548160016002811061089657fe5b602002018181525050809050919050565b600073ffffffffffffffffffffffffffffffffffffffff16600260003373ffffffffffffffffffffffffffffffffffffffff1673ffffffffffffffffffffffffffffffffffffffff16815260200190815260200160002060000160019054906101000a900473ffffffffffffffffffffffffffffffffffffffff1673ffffffffffffffffffffffffffffffffffffffff1614156109ac576040517f08c379a00000000000000000000000000000000000000000000000000000000081526004018080602001828103825260188152602001807f566f746572206973206e6f7420726567697374657265642e000000000000000081525060200191505060405180910390fd5b60001515600260003373ffffffffffffffffffffffffffffffffffffffff1673ffffffffffffffffffffffffffffffffffffffff16815260200190815260200160002060000160009054906101000a900460ff16151514610a75576040517f08c379a00000000000000000000000000000000000000000000000000000000081526004018080602001828103825260188152602001807f566f7465722068617320616c726561647920766f7465642e000000000000000081525060200191505060405180910390fd5b80600080549050815114610ad4576040517f08c379a000000000000000000000000000000000000000000000000000000000815260040180806020018281038252604181526020018061107c6041913960600191505060405180910390fd5b81600260003373ffffffffffffffffffffffffffffffffffffffff1673ffffffffffffffffffffffffffffffffffffffff1681526020019081526020016000206001019080519060200190610b2a929190610f80565b5060008090505b8251811015610bea5760001515838281518110610b4a57fe5b602002602001015115151415610b8d5760008181548110610b6757fe5b906000526020600020906003020160010160008154809291906001019190505550610bdd565b60011515838281518110610b9d57fe5b602002602001015115151415610bdc5760008181548110610bba57fe5b9060005260206000209060030201600001600081548092919060010191905055505b5b8080600101915050610b31565b506001600260003373ffffffffffffffffffffffffffffffffffffffff1673ffffffffffffffffffffffffffffffffffffffff16815260200190815260200160002060000160006101000a81548160ff0219169083151502179055507fb87a61d78bd15221c59b983f6ef032fbde0631e66bfe18d1421fe5a73c16741d33604051808273ffffffffffffffffffffffffffffffffffffffff1673ffffffffffffffffffffffffffffffffffffffff16815260200191505060405180910390a15050565b6000600354905090565b60008090505b600080549050811015610e7a5760008181548110610cd757fe5b90600052602060002090600302016001015460008281548110610cf657fe5b9060005260206000209060030201600001540160008281548110610d1657fe5b90600052602060002090600302016002018190555060008181548110610d3857fe5b90600052602060002090600302016001015460008281548110610d5757fe5b9060005260206000209060030201600001541115610dab576001808281548110610d7d57fe5b90600052602060002090602091828204019190066101000a81548160ff021916908315150217905550610de4565b600060018281548110610dba57fe5b90600052602060002090602091828204019190066101000a81548160ff0219169083151502179055505b60008181548110610df157fe5b90600052602060002090600302016001015460008281548110610e1057fe5b90600052602060002090600302016000015460008381548110610e2f57fe5b9060005260206000209060030201600201547f66293fb6726f2e125eccd9931110810ac5da2ad99a6633dd9cd4f2c94895d80660405160405180910390a48080600101915050610cbd565b50565b6000600460009054906101000a900473ffffffffffffffffffffffffffffffffffffffff16905090565b60606001805480602002602001604051908101604052809291908181526020018280548015610f1a57602002820191906000526020600020906000905b82829054906101000a900460ff16151581526020019060010190602082600001049283019260010382029150808411610ee45790505b5050505050905090565b815481835581811115610f5957601f016020900481601f01602090048360005260206000209182019101610f589190611026565b5b505050565b6040518060400160405280600290602082028038833980820191505090505090565b82805482825590600052602060002090601f016020900481019282156110155791602002820160005b83821115610fe657835183826101000a81548160ff0219169083151502179055509260200192600101602081600001049283019260010302610fa9565b80156110135782816101000a81549060ff0219169055600101602081600001049283019260010302610fe6565b505b509050611022919061104b565b5090565b61104891905b8082111561104457600081600090555060010161102c565b5090565b90565b61107891905b8082111561107457600081816101000a81549060ff021916905550600101611051565b5090565b9056fe496e636f727265637420666f726d61742e20506c6561736520656e7375726520616c6c2070726f706f73616c732068617665206265656e20766f746564206f6e2e596f7520617265206e6f7420617574686f72697a656420746f2074616b65207468697320616374696f6e2e596f7520617265206e6f7420617574686f72697a656420746f2076696577207468697320696e666f726d6174696f6e2ea265627a7a7231582044080f1dbe8fd2b3557764e07bf8c0956c95cbad67e8b03879acfbf2ee3605bb64736f6c63430005100032",
  "source": "pragma solidity >=0.4.22 <0.8.0;\r\n\r\n// pragma experimental ABIEncoderV2;\r\n\r\ncontract Voting {\r\n  /* VARIABLES */\r\n  //STRUCTS\r\n  struct Proposal {\r\n    uint256 yesCount;\r\n    uint256 noCount;\r\n    uint256 totalVotes;\r\n  }\r\n\r\n  struct Voter {\r\n    bool voted;\r\n    address voterAddress;\r\n    bool[] choices;\r\n  }\r\n\r\n  //Arrays\r\n  Proposal[] proposals;\r\n  bool[] winningProposals;\r\n\r\n  //MAPPING\r\n  mapping(address => Voter) voters;\r\n\r\n  //UINTS\r\n  uint256 totalRegisteredVoters;\r\n\r\n  //ADDRESSES\r\n  address electionOfficial;\r\n\r\n  //EVENTS\r\n  event VoteCast(address _voter);\r\n  event Registered(address _voter);\r\n  event VotesCounted(\r\n    uint256 indexed _totalVotes,\r\n    uint256 indexed _yesCount,\r\n    uint256 indexed _noCount\r\n  );\r\n\r\n  /* MODIFIERS */\r\n  modifier onlyOfficial() {\r\n    require(\r\n      msg.sender == electionOfficial,\r\n      \"You are not authorized to take this action.\"\r\n    );\r\n    _;\r\n  }\r\n\r\n  modifier isRegisteredVoter() {\r\n    require(\r\n      voters[msg.sender].voterAddress != address(0),\r\n      \"Voter is not registered.\"\r\n    );\r\n    _;\r\n  }\r\n\r\n  modifier hasNotVoted() {\r\n    require(\r\n      voters[msg.sender].voted == false,\r\n      \"Voter has already voted.\"\r\n    );\r\n    _;\r\n  }\r\n  modifier correctVotingFormat(bool[] memory choices) {\r\n    require(\r\n      choices.length == proposals.length,\r\n      \"Incorrect format. Please ensure all proposals have been voted on.\"\r\n    );\r\n    _;\r\n  }\r\n\r\n  /* FUNCTIONS */\r\n  //CONSTRUCTOR\r\n  constructor(uint256 _numOfProposals) public {\r\n    electionOfficial = msg.sender;\r\n\r\n    proposals.length = _numOfProposals;\r\n    winningProposals.length = _numOfProposals;\r\n\r\n    for (uint256 i = 0; i < _numOfProposals; i++) {\r\n      proposals[i].yesCount = 0;\r\n      proposals[i].noCount = 0;\r\n      proposals[i].totalVotes = 0;\r\n    }\r\n  }\r\n\r\n  //ELECTION SETUP FUNCTIONS\r\n  function register(address registeringVoter) public onlyOfficial {\r\n    //Check if the voter is already registered based on their address\r\n    if (voters[registeringVoter].voterAddress != address(0))\r\n      revert(\"Voter is already registered.\");\r\n\r\n    voters[registeringVoter].voterAddress = registeringVoter;\r\n    voters[registeringVoter].voted = false;\r\n    voters[registeringVoter].choices.length = proposals\r\n      .length;\r\n    totalRegisteredVoters++;\r\n    emit Registered(registeringVoter);\r\n  }\r\n\r\n  //VOTING FUNCTIONS\r\n  function vote (bool[] memory choices)\r\n    public\r\n    isRegisteredVoter\r\n    hasNotVoted\r\n    correctVotingFormat(choices)\r\n  {\r\n    voters[msg.sender].choices = choices;\r\n\r\n    for (uint256 index = 0; index < choices.length; index++) {\r\n      if (choices[index] == false) {\r\n        proposals[index].noCount++;\r\n      } else if (choices[index] == true) {\r\n        proposals[index].yesCount++;\r\n      }\r\n    }\r\n    voters[msg.sender].voted = true;\r\n    emit VoteCast(msg.sender);\r\n  }\r\n\r\n  function countProposals() public {\r\n    for (uint256 index = 0; index < proposals.length; index++) {\r\n      proposals[index].totalVotes =\r\n        proposals[index].yesCount +\r\n        proposals[index].noCount;\r\n      if (\r\n        proposals[index].yesCount > proposals[index].noCount\r\n      ) {\r\n        winningProposals[index] = true;\r\n      } else {\r\n        winningProposals[index] = false;\r\n      }\r\n      emit VotesCounted(\r\n        proposals[index].totalVotes,\r\n        proposals[index].yesCount,\r\n        proposals[index].noCount\r\n      );\r\n    }\r\n  }\r\n\r\n  //AUDITING FUNCTIONS\r\n  function getElectionOfficial() public view returns (address) {\r\n    return electionOfficial;\r\n  }\r\n\r\n  function countRegisteredVoters() public view returns (uint256) {\r\n    return totalRegisteredVoters;\r\n  }\r\n\r\n  \r\n  function getTotalProposals() public view returns (uint256) {\r\n    uint256 count = proposals.length;\r\n    return count;\r\n  }\r\n\r\n  function getChoices(address voter)\r\n    public\r\n    view\r\n    returns (bool[] memory)\r\n  {\r\n    if (msg.sender != voter)\r\n      revert(\"You are not authorized to view this information.\");\r\n    return voters[voter].choices;\r\n  }\r\n\r\n  function getWinningProposals() public view returns (bool[] memory) {\r\n    return winningProposals;\r\n  }\r\n\r\n  function getProposalCount(uint256 proposalNumber)\r\n    public\r\n    view\r\n    returns (uint256[2] memory totalCounts)\r\n  {\r\n    totalCounts[0] = proposals[proposalNumber].noCount;\r\n    totalCounts[1] = proposals[proposalNumber].yesCount;\r\n\r\n    return totalCounts;\r\n  }\r\n}\r\n",
  "sourcePath": "C:/Users/ChyChy/Coding/Personal/voting-dapp/smart-contract/contracts/Voting.sol",
  "compiler": {
    "name": "solc",
    "version": "0.5.16+commit.9c3226ce.Emscripten.clang"
  },
  "schemaVersion": "3.2.5",
  "updatedAt": "2021-03-04T22:42:47.012Z",
  "networkType": "ethereum",
  "devdoc": {
    "methods": {}
  },
  "userdoc": {
    "methods": {}
  }
}