{
  "contractName": "Election",
  "abi": [
    {
      "inputs": [
        {
          "internalType": "uint256",
          "name": "_numOfProposals",
          "type": "uint256"
        }
      ],
      "payable": false,
      "stateMutability": "nonpayable",
      "type": "constructor"
    },
    {
      "constant": true,
      "inputs": [],
      "name": "electionOfficial",
      "outputs": [
        {
          "internalType": "address",
          "name": "",
          "type": "address"
        }
      ],
      "payable": false,
      "stateMutability": "view",
      "type": "function"
    },
    {
      "constant": true,
      "inputs": [
        {
          "internalType": "uint256",
          "name": "",
          "type": "uint256"
        }
      ],
      "name": "electionProposals",
      "outputs": [
        {
          "internalType": "uint256",
          "name": "yesCount",
          "type": "uint256"
        },
        {
          "internalType": "uint256",
          "name": "noCount",
          "type": "uint256"
        }
      ],
      "payable": false,
      "stateMutability": "view",
      "type": "function"
    },
    {
      "constant": true,
      "inputs": [],
      "name": "totalRegisteredVoters",
      "outputs": [
        {
          "internalType": "uint256",
          "name": "",
          "type": "uint256"
        }
      ],
      "payable": false,
      "stateMutability": "view",
      "type": "function"
    },
    {
      "constant": true,
      "inputs": [],
      "name": "totalVoted",
      "outputs": [
        {
          "internalType": "uint256",
          "name": "",
          "type": "uint256"
        }
      ],
      "payable": false,
      "stateMutability": "view",
      "type": "function"
    },
    {
      "constant": false,
      "inputs": [
        {
          "internalType": "address",
          "name": "registeringVoter",
          "type": "address"
        }
      ],
      "name": "register",
      "outputs": [],
      "payable": false,
      "stateMutability": "nonpayable",
      "type": "function"
    },
    {
      "constant": false,
      "inputs": [
        {
          "internalType": "bool[]",
          "name": "voterChoices",
          "type": "bool[]"
        }
      ],
      "name": "vote",
      "outputs": [],
      "payable": false,
      "stateMutability": "nonpayable",
      "type": "function"
    },
    {
      "constant": false,
      "inputs": [],
      "name": "countWinningProposals",
      "outputs": [],
      "payable": false,
      "stateMutability": "nonpayable",
      "type": "function"
    },
    {
      "constant": true,
      "inputs": [],
      "name": "countRegisteredVoters",
      "outputs": [
        {
          "internalType": "uint256",
          "name": "",
          "type": "uint256"
        }
      ],
      "payable": false,
      "stateMutability": "view",
      "type": "function"
    },
    {
      "constant": true,
      "inputs": [
        {
          "internalType": "address",
          "name": "voter",
          "type": "address"
        }
      ],
      "name": "getVoterChoices",
      "outputs": [
        {
          "internalType": "bool[]",
          "name": "finalChoices",
          "type": "bool[]"
        }
      ],
      "payable": false,
      "stateMutability": "view",
      "type": "function"
    },
    {
      "constant": true,
      "inputs": [],
      "name": "getNumberOfProposals",
      "outputs": [
        {
          "internalType": "uint256",
          "name": "",
          "type": "uint256"
        }
      ],
      "payable": false,
      "stateMutability": "view",
      "type": "function"
    },
    {
      "constant": true,
      "inputs": [],
      "name": "getWinningProposals",
      "outputs": [
        {
          "internalType": "bool[]",
          "name": "",
          "type": "bool[]"
        }
      ],
      "payable": false,
      "stateMutability": "view",
      "type": "function"
    },
    {
      "constant": true,
      "inputs": [
        {
          "internalType": "uint256",
          "name": "proposalNumber",
          "type": "uint256"
        }
      ],
      "name": "getProposalCount",
      "outputs": [
        {
          "internalType": "uint256[2]",
          "name": "totalCounts",
          "type": "uint256[2]"
        }
      ],
      "payable": false,
      "stateMutability": "view",
      "type": "function"
    }
  ],
  "bytecode": "0x60806040523480156200001157600080fd5b50604051620010d9380380620010d9833981810160405260208110156200003757600080fd5b810190808051906020019092919050505033600560006101000a81548173ffffffffffffffffffffffffffffffffffffffff021916908373ffffffffffffffffffffffffffffffffffffffff1602179055508060008162000099919062000118565b5080600181620000aa91906200014d565b5060008090505b8181101562000110576000808281548110620000c957fe5b9060005260206000209060020201600001819055506000808281548110620000ed57fe5b9060005260206000209060020201600101819055508080600101915050620000b1565b5050620001e4565b81548183558181111562000148576002028160020283600052602060002091820191016200014791906200018a565b5b505050565b8154818355818111156200018557601f016020900481601f01602090048360005260206000209182019101620001849190620001bc565b5b505050565b620001b991905b80821115620001b55760008082016000905560018201600090555060020162000191565b5090565b90565b620001e191905b80821115620001dd576000816000905550600101620001c3565b5090565b90565b610ee580620001f46000396000f3fe608060405234801561001057600080fd5b50600436106100b35760003560e01c80636a642366116100715780636a64236614610278578063ad39b7eb14610282578063b3a2273f146102cc578063cb404a45146102ea578063d7b9bd0814610383578063ef788cd5146103cc576100b3565b8062aa7464146100b857806333809b6c146100d65780634420e486146100f45780634936c0f614610138578063523d5322146101a25780635ba41d9b1461025a575b600080fd5b6100c061042b565b6040518082815260200191505060405180910390f35b6100de610431565b6040518082815260200191505060405180910390f35b6101366004803603602081101561010a57600080fd5b81019080803573ffffffffffffffffffffffffffffffffffffffff16906020019092919050505061043d565b005b6101646004803603602081101561014e57600080fd5b81019080803590602001909291905050506106c3565b6040518082600260200280838360005b8381101561018f578082015181840152602081019050610174565b5050505090500191505060405180910390f35b610258600480360360208110156101b857600080fd5b81019080803590602001906401000000008111156101d557600080fd5b8201836020820111156101e757600080fd5b8035906020019184602083028401116401000000008311171561020957600080fd5b919080806020026020016040519081016040528093929190818152602001838360200280828437600081840152601f19601f82011690508083019250505050505050919291929050505061073d565b005b610262610a80565b6040518082815260200191505060405180910390f35b610280610a8a565b005b61028a610b66565b604051808273ffffffffffffffffffffffffffffffffffffffff1673ffffffffffffffffffffffffffffffffffffffff16815260200191505060405180910390f35b6102d4610b8c565b6040518082815260200191505060405180910390f35b61032c6004803603602081101561030057600080fd5b81019080803573ffffffffffffffffffffffffffffffffffffffff169060200190929190505050610b92565b6040518080602001828103825283818151815260200191508051906020019060200280838360005b8381101561036f578082015181840152602081019050610354565b505050509050019250505060405180910390f35b6103af6004803603602081101561039957600080fd5b8101908080359060200190929190505050610c89565b604051808381526020018281526020019250505060405180910390f35b6103d4610cba565b6040518080602001828103825283818151815260200191508051906020019060200280838360005b838110156104175780820151818401526020810190506103fc565b505050509050019250505060405180910390f35b60035481565b60008080549050905090565b600560009054906101000a900473ffffffffffffffffffffffffffffffffffffffff1673ffffffffffffffffffffffffffffffffffffffff163373ffffffffffffffffffffffffffffffffffffffff16146104e3576040517f08c379a0000000000000000000000000000000000000000000000000000000008152600401808060200182810382526022815260200180610e8f6022913960400191505060405180910390fd5b600073ffffffffffffffffffffffffffffffffffffffff16600260008373ffffffffffffffffffffffffffffffffffffffff1673ffffffffffffffffffffffffffffffffffffffff16815260200190815260200160002060000160019054906101000a900473ffffffffffffffffffffffffffffffffffffffff1673ffffffffffffffffffffffffffffffffffffffff161461057e57600080fd5b80600260008373ffffffffffffffffffffffffffffffffffffffff1673ffffffffffffffffffffffffffffffffffffffff16815260200190815260200160002060000160016101000a81548173ffffffffffffffffffffffffffffffffffffffff021916908373ffffffffffffffffffffffffffffffffffffffff1602179055506000600260008373ffffffffffffffffffffffffffffffffffffffff1673ffffffffffffffffffffffffffffffffffffffff16815260200190815260200160002060000160006101000a81548160ff021916908315150217905550600080549050600260008373ffffffffffffffffffffffffffffffffffffffff1673ffffffffffffffffffffffffffffffffffffffff168152602001908152602001600020600101816106ad9190610d37565b5060036000815480929190600101919050555050565b6106cb610d71565b600082815481106106d857fe5b906000526020600020906002020160010154816000600281106106f757fe5b6020020181815250506000828154811061070d57fe5b9060005260206000209060020201600001548160016002811061072c57fe5b602002018181525050809050919050565b600073ffffffffffffffffffffffffffffffffffffffff16600260003373ffffffffffffffffffffffffffffffffffffffff1673ffffffffffffffffffffffffffffffffffffffff16815260200190815260200160002060000160019054906101000a900473ffffffffffffffffffffffffffffffffffffffff1673ffffffffffffffffffffffffffffffffffffffff161415610842576040517f08c379a00000000000000000000000000000000000000000000000000000000081526004018080602001828103825260188152602001807f566f746572206973206e6f7420726567697374657265642e000000000000000081525060200191505060405180910390fd5b60001515600260003373ffffffffffffffffffffffffffffffffffffffff1673ffffffffffffffffffffffffffffffffffffffff16815260200190815260200160002060000160009054906101000a900460ff1615151461090b576040517f08c379a00000000000000000000000000000000000000000000000000000000081526004018080602001828103825260188152602001807f566f7465722068617320616c726561647920766f7465642e000000000000000081525060200191505060405180910390fd5b80600260003373ffffffffffffffffffffffffffffffffffffffff1673ffffffffffffffffffffffffffffffffffffffff1681526020019081526020016000206001019080519060200190610961929190610d93565b5060008090505b8151811015610a21576000151582828151811061098157fe5b6020026020010151151514156109c4576000818154811061099e57fe5b906000526020600020906002020160010160008154809291906001019190505550610a14565b600115158282815181106109d457fe5b602002602001015115151415610a1357600081815481106109f157fe5b9060005260206000209060020201600001600081548092919060010191905055505b5b8080600101915050610968565b506001600260003373ffffffffffffffffffffffffffffffffffffffff1673ffffffffffffffffffffffffffffffffffffffff16815260200190815260200160002060000160006101000a81548160ff02191690831515021790555050565b6000600354905090565b60008090505b600080549050811015610b635760008181548110610aaa57fe5b90600052602060002090600202016001015460008281548110610ac957fe5b9060005260206000209060020201600001541115610b1d576001808281548110610aef57fe5b90600052602060002090602091828204019190066101000a81548160ff021916908315150217905550610b56565b600060018281548110610b2c57fe5b90600052602060002090602091828204019190066101000a81548160ff0219169083151502179055505b8080600101915050610a90565b50565b600560009054906101000a900473ffffffffffffffffffffffffffffffffffffffff1681565b60045481565b60608173ffffffffffffffffffffffffffffffffffffffff163373ffffffffffffffffffffffffffffffffffffffff1614610bcc57600080fd5b600260008373ffffffffffffffffffffffffffffffffffffffff1673ffffffffffffffffffffffffffffffffffffffff168152602001908152602001600020600101805480602002602001604051908101604052809291908181526020018280548015610c7d57602002820191906000526020600020906000905b82829054906101000a900460ff16151581526020019060010190602082600001049283019260010382029150808411610c475790505b50505050509050919050565b60008181548110610c9657fe5b90600052602060002090600202016000915090508060000154908060010154905082565b60606001805480602002602001604051908101604052809291908181526020018280548015610d2d57602002820191906000526020600020906000905b82829054906101000a900460ff16151581526020019060010190602082600001049283019260010382029150808411610cf75790505b5050505050905090565b815481835581811115610d6c57601f016020900481601f01602090048360005260206000209182019101610d6b9190610e39565b5b505050565b6040518060400160405280600290602082028038833980820191505090505090565b82805482825590600052602060002090601f01602090048101928215610e285791602002820160005b83821115610df957835183826101000a81548160ff0219169083151502179055509260200192600101602081600001049283019260010302610dbc565b8015610e265782816101000a81549060ff0219169055600101602081600001049283019260010302610df9565b505b509050610e359190610e5e565b5090565b610e5b91905b80821115610e57576000816000905550600101610e3f565b5090565b90565b610e8b91905b80821115610e8757600081816101000a81549060ff021916905550600101610e64565b5090565b9056fe596f7520617265206e6f742074686520656c656374696f6e206f6666696369616c2ea265627a7a72315820fadb0a8e064cdeaee34c53578b6c9fe8adf7842c5ec54c05a1a51f5e420a678164736f6c63430005100032",
  "source": "pragma solidity >=0.4.22 <0.8.0;\r\n\r\ncontract Election {\r\n  /* VARIABLES */\r\n  //STRUCTS\r\n  // For use when ranked choice allowed\r\n  // struct Proposal {\r\n  //     uint[] options;\r\n  //     uint proposalNumber;\r\n  //     bytes32 proposalType;\r\n  // }\r\n  struct Proposal {\r\n    uint yesCount;\r\n    uint noCount;\r\n  }\r\n\r\n  struct Voter {\r\n    bool voted;\r\n    // address token;\r\n    address voterAddress;\r\n    bool[] choices;\r\n  }\r\n\r\n  //Arrays\r\n  Proposal[] public electionProposals;\r\n  bool[] winningProposals;\r\n  // address[] internal registeredAddressList;\r\n\r\n  //MAPPING\r\n  mapping(address => Voter) voters;\r\n\r\n  //UINTS\r\n  uint public totalRegisteredVoters;\r\n  uint public totalVoted;\r\n\r\n  //ADDRESSES\r\n  address public electionOfficial;\r\n\r\n  /* MODIFIERS */\r\n  modifier onlyOfficial() {\r\n    require(\r\n      msg.sender == electionOfficial,\r\n      \"You are not the election official.\"\r\n    );\r\n    _;\r\n  }\r\n\r\n  modifier isRegisteredVoter() {\r\n    require(\r\n      voters[msg.sender].voterAddress != address(0),\r\n      \"Voter is not registered.\"\r\n    );\r\n    _;\r\n  }\r\n\r\n  modifier hasNotVoted() {\r\n    require(voters[msg.sender].voted == false, \"Voter has already voted.\");\r\n    _;\r\n  }\r\n\r\n  /* FUNCTIONS */\r\n  //CONSTRUCTOR\r\n  constructor(uint _numOfProposals) public {\r\n    electionOfficial = msg.sender;\r\n    electionProposals.length = _numOfProposals;\r\n    winningProposals.length = _numOfProposals;\r\n    for (uint i = 0; i < _numOfProposals; i++) {\r\n      electionProposals[i].yesCount = 0;\r\n      electionProposals[i].noCount = 0;\r\n    }\r\n  }\r\n\r\n  //ELECTION SETUP FUNCTIONS\r\n  function register(address registeringVoter) public onlyOfficial {\r\n    //Check if the voter is already registered based on their address\r\n    if (voters[registeringVoter].voterAddress != address(0)) revert();\r\n\r\n    voters[registeringVoter].voterAddress = registeringVoter;\r\n    voters[registeringVoter].voted = false;\r\n    voters[registeringVoter].choices.length = electionProposals.length;\r\n    totalRegisteredVoters++;\r\n  }\r\n\r\n  //VOTING FUNCTIONS\r\n  function vote(bool[] memory voterChoices)\r\n    public\r\n    isRegisteredVoter\r\n    hasNotVoted\r\n  {\r\n    voters[msg.sender].choices= voterChoices;\r\n    for (uint index = 0; index < voterChoices.length; index++) {\r\n      if (voterChoices[index] == false) {\r\n        electionProposals[index].noCount++;\r\n      } else if (voterChoices[index] == true) {\r\n        electionProposals[index].yesCount++;\r\n      }\r\n    }\r\n    voters[msg.sender].voted = true;\r\n  }\r\n\r\n  function countWinningProposals()\r\n    public\r\n  {\r\n    for (uint index = 0; index < electionProposals.length; index++) {\r\n      if (\r\n        electionProposals[index].yesCount > electionProposals[index].noCount\r\n      ) {\r\n        winningProposals[index] = true;\r\n      } else {\r\n        winningProposals[index] = false;\r\n      }\r\n    }\r\n  }\r\n\r\n  //AUDITING FUNCTIONS\r\n\r\n  function countRegisteredVoters() public view returns (uint) {\r\n    return totalRegisteredVoters;\r\n  }\r\n    function getVoterChoices(address voter)\r\n    public\r\n    view\r\n    returns (bool[] memory finalChoices)\r\n  {\r\n    if (msg.sender != voter) revert();\r\n    return voters[voter].choices;\r\n  }\r\n  function getNumberOfProposals() public view returns (uint) {\r\n    return electionProposals.length;\r\n  }\r\n  function getWinningProposals() public view returns(bool[] memory){\r\n    return winningProposals;\r\n  }\r\n\r\n  function getProposalCount(uint proposalNumber)\r\n    public\r\n    view\r\n    returns (uint[2] memory totalCounts)\r\n  {\r\n    totalCounts[0] = electionProposals[proposalNumber].noCount;\r\n    totalCounts[1] = electionProposals[proposalNumber].yesCount;\r\n\r\n    return totalCounts;\r\n  }\r\n\r\n\r\n}\r\n",
  "sourcePath": "C:/Users/ChyChy/Coding/personal/voting-dapp/contracts/Election.sol",
  "compiler": {
    "name": "solc",
    "version": "0.5.16+commit.9c3226ce.Emscripten.clang"
  },
  "schemaVersion": "3.2.5",
  "updatedAt": "2020-11-05T20:55:28.073Z",
  "networkType": "ethereum",
  "devdoc": {
    "methods": {}
  },
  "userdoc": {
    "methods": {}
  }
}