{
  "contractName": "Election",
  "abi": [
    {
      "inputs": [
        {
          "internalType": "uint256",
          "name": "_numOfProposals",
          "type": "uint256"
        }
      ],
      "payable": false,
      "stateMutability": "nonpayable",
      "type": "constructor"
    },
    {
      "constant": true,
      "inputs": [],
      "name": "electionOfficial",
      "outputs": [
        {
          "internalType": "address",
          "name": "",
          "type": "address"
        }
      ],
      "payable": false,
      "stateMutability": "view",
      "type": "function"
    },
    {
      "constant": true,
      "inputs": [
        {
          "internalType": "uint256",
          "name": "",
          "type": "uint256"
        }
      ],
      "name": "electionProposals",
      "outputs": [
        {
          "internalType": "uint256",
          "name": "yesCount",
          "type": "uint256"
        },
        {
          "internalType": "uint256",
          "name": "noCount",
          "type": "uint256"
        }
      ],
      "payable": false,
      "stateMutability": "view",
      "type": "function"
    },
    {
      "constant": false,
      "inputs": [
        {
          "internalType": "address",
          "name": "voter",
          "type": "address"
        }
      ],
      "name": "register",
      "outputs": [],
      "payable": false,
      "stateMutability": "nonpayable",
      "type": "function"
    },
    {
      "constant": false,
      "inputs": [
        {
          "internalType": "uint256[]",
          "name": "voterChoices",
          "type": "uint256[]"
        }
      ],
      "name": "vote",
      "outputs": [],
      "payable": false,
      "stateMutability": "nonpayable",
      "type": "function"
    },
    {
      "constant": true,
      "inputs": [],
      "name": "getWinningProposals",
      "outputs": [
        {
          "internalType": "uint256[]",
          "name": "winningProposals",
          "type": "uint256[]"
        }
      ],
      "payable": false,
      "stateMutability": "view",
      "type": "function"
    },
    {
      "constant": true,
      "inputs": [
        {
          "internalType": "uint256",
          "name": "proposalNumber",
          "type": "uint256"
        }
      ],
      "name": "getProposalCount",
      "outputs": [
        {
          "internalType": "uint256[2]",
          "name": "totalCounts",
          "type": "uint256[2]"
        }
      ],
      "payable": false,
      "stateMutability": "view",
      "type": "function"
    },
    {
      "constant": true,
      "inputs": [
        {
          "internalType": "address",
          "name": "voter",
          "type": "address"
        }
      ],
      "name": "getVoterChoices",
      "outputs": [
        {
          "internalType": "uint256[]",
          "name": "finalChoices",
          "type": "uint256[]"
        }
      ],
      "payable": false,
      "stateMutability": "view",
      "type": "function"
    }
  ],
  "bytecode": "0x608060405234801561001057600080fd5b50604051610c88380380610c888339818101604052602081101561003357600080fd5b810190808051906020019092919050505033600260006101000a81548173ffffffffffffffffffffffffffffffffffffffff021916908373ffffffffffffffffffffffffffffffffffffffff16021790555080600081610093919061009a565b50506100fb565b8154818355818111156100c7576002028160020283600052602060002091820191016100c691906100cc565b5b505050565b6100f891905b808211156100f4576000808201600090556001820160009055506002016100d2565b5090565b90565b610b7e8061010a6000396000f3fe608060405234801561001057600080fd5b506004361061007d5760003560e01c8063cb404a451161005b578063cb404a451461017a578063ce11f2bb14610213578063d7b9bd08146102cb578063ef788cd5146103145761007d565b80634420e486146100825780634936c0f6146100c6578063ad39b7eb14610130575b600080fd5b6100c46004803603602081101561009857600080fd5b81019080803573ffffffffffffffffffffffffffffffffffffffff169060200190929190505050610373565b005b6100f2600480360360208110156100dc57600080fd5b8101908080359060200190929190505050610593565b6040518082600260200280838360005b8381101561011d578082015181840152602081019050610102565b5050505090500191505060405180910390f35b61013861060d565b604051808273ffffffffffffffffffffffffffffffffffffffff1673ffffffffffffffffffffffffffffffffffffffff16815260200191505060405180910390f35b6101bc6004803603602081101561019057600080fd5b81019080803573ffffffffffffffffffffffffffffffffffffffff169060200190929190505050610633565b6040518080602001828103825283818151815260200191508051906020019060200280838360005b838110156101ff5780820151818401526020810190506101e4565b505050509050019250505060405180910390f35b6102c96004803603602081101561022957600080fd5b810190808035906020019064010000000081111561024657600080fd5b82018360208201111561025857600080fd5b8035906020019184602083028401116401000000008311171561027a57600080fd5b919080806020026020016040519081016040528093929190818152602001838360200280828437600081840152601f19601f820116905080830192505050505050509192919290505050610705565b005b6102f7600480360360208110156102e157600080fd5b8101908080359060200190929190505050610a30565b604051808381526020018281526020019250505060405180910390f35b61031c610a61565b6040518080602001828103825283818151815260200191508051906020019060200280838360005b8381101561035f578082015181840152602081019050610344565b505050509050019250505060405180910390f35b600260009054906101000a900473ffffffffffffffffffffffffffffffffffffffff1673ffffffffffffffffffffffffffffffffffffffff163373ffffffffffffffffffffffffffffffffffffffff1614610419576040517f08c379a0000000000000000000000000000000000000000000000000000000008152600401808060200182810382526022815260200180610b286022913960400191505060405180910390fd5b600073ffffffffffffffffffffffffffffffffffffffff16600160008373ffffffffffffffffffffffffffffffffffffffff1673ffffffffffffffffffffffffffffffffffffffff16815260200190815260200160002060000160019054906101000a900473ffffffffffffffffffffffffffffffffffffffff1673ffffffffffffffffffffffffffffffffffffffff16146104b457600080fd5b80600160008373ffffffffffffffffffffffffffffffffffffffff1673ffffffffffffffffffffffffffffffffffffffff16815260200190815260200160002060000160016101000a81548173ffffffffffffffffffffffffffffffffffffffff021916908373ffffffffffffffffffffffffffffffffffffffff1602179055506000600160008373ffffffffffffffffffffffffffffffffffffffff1673ffffffffffffffffffffffffffffffffffffffff16815260200190815260200160002060000160006101000a81548160ff02191690831515021790555050565b61059b610b05565b600082815481106105a857fe5b906000526020600020906002020160010154816000600281106105c757fe5b602002018181525050600082815481106105dd57fe5b906000526020600020906002020160000154816001600281106105fc57fe5b602002018181525050809050919050565b600260009054906101000a900473ffffffffffffffffffffffffffffffffffffffff1681565b60608173ffffffffffffffffffffffffffffffffffffffff163373ffffffffffffffffffffffffffffffffffffffff161461066d57600080fd5b600160008373ffffffffffffffffffffffffffffffffffffffff1673ffffffffffffffffffffffffffffffffffffffff1681526020019081526020016000206001018054806020026020016040519081016040528092919081815260200182805480156106f957602002820191906000526020600020905b8154815260200190600101908083116106e5575b50505050509050919050565b600073ffffffffffffffffffffffffffffffffffffffff16600160003373ffffffffffffffffffffffffffffffffffffffff1673ffffffffffffffffffffffffffffffffffffffff16815260200190815260200160002060000160019054906101000a900473ffffffffffffffffffffffffffffffffffffffff1673ffffffffffffffffffffffffffffffffffffffff16141561080a576040517f08c379a00000000000000000000000000000000000000000000000000000000081526004018080602001828103825260188152602001807f566f746572206973206e6f7420726567697374657265642e000000000000000081525060200191505060405180910390fd5b60001515600160003373ffffffffffffffffffffffffffffffffffffffff1673ffffffffffffffffffffffffffffffffffffffff16815260200190815260200160002060000160009054906101000a900460ff161515146108d3576040517f08c379a00000000000000000000000000000000000000000000000000000000081526004018080602001828103825260188152602001807f566f7465722068617320616c726561647920766f7465642e000000000000000081525060200191505060405180910390fd5b6000600160003373ffffffffffffffffffffffffffffffffffffffff1673ffffffffffffffffffffffffffffffffffffffff168152602001908152602001600020905060008090505b600080549050811015610a0e5782818151811061093557fe5b602002602001015182600101828154811061094c57fe5b9060005260206000200181905550600082600101828154811061096b57fe5b906000526020600020015414156109af576000818154811061098957fe5b906000526020600020906002020160010160008154809291906001019190505550610a01565b60018260010182815481106109c057fe5b90600052602060002001541415610a0057600081815481106109de57fe5b9060005260206000209060020201600001600081548092919060010191905055505b5b808060010191505061091c565b5060018160000160006101000a81548160ff0219169083151502179055505050565b60008181548110610a3d57fe5b90600052602060002090600202016000915090508060000154908060010154905082565b606060008090505b600080549050811015610b015760008181548110610a8357fe5b90600052602060002090600202016001015460008281548110610aa257fe5b9060005260206000209060020201600001541115610ad9576001828281518110610ac857fe5b602002602001018181525050610af4565b6000828281518110610ae757fe5b6020026020010181815250505b8080600101915050610a69565b5090565b604051806040016040528060029060208202803883398082019150509050509056fe596f7520617265206e6f742074686520656c656374696f6e206f6666696369616c2ea265627a7a723158209993d9ac2cc31cae5972824126eda668e92ca030a89cccf04e772d3ec340881e64736f6c63430005100032",
  "source": "pragma solidity >=0.4.22 <0.8.0;\r\n\r\ncontract Election {\r\n   /* VARIABLES */\r\n   //STRUCTS\r\n    // For use when ranked choice allowed\r\n    // struct Proposal {\r\n    //     uint256[] options;\r\n    //     uint256 proposalNumber;\r\n    //     bytes32 proposalType;\r\n    // }\r\n    struct Proposal {\r\n        uint256 yesCount;\r\n        uint256 noCount;\r\n    }\r\n\r\n    struct Voter {\r\n        bool voted;\r\n        // address token;\r\n        address voterAddress;\r\n        uint256[] choices;\r\n    }\r\n\r\n   //UINTS\r\n    // uint public totalTokens;\r\n\r\n   //ARRAYS\r\n    Proposal[] public electionProposals;\r\n    // address[] internal registeredAddressList;\r\n\r\n   //MAPPING\r\n    mapping(address => Voter) registeredVoters;\r\n\r\n   //ADDRESSES\r\n    address public electionOfficial;\r\n\r\n   /* MODIFIERS */\r\n    modifier onlyOfficial () {\r\n        require(msg.sender == electionOfficial, \"You are not the election official.\");\r\n        _;\r\n    }\r\n\r\n    modifier isRegisteredVoter (){\r\n        require(registeredVoters[msg.sender].voterAddress != address(0), \"Voter is not registered.\");\r\n        _;\r\n    }\r\n\r\n    modifier hasNotVoted(){\r\n        require(registeredVoters[msg.sender].voted == false, \"Voter has already voted.\");\r\n        _;\r\n    }\r\n\r\n    /* FUNCTIONS */\r\n    //CONSTRUCTOR\r\n    constructor(uint256 _numOfProposals) public {\r\n        electionOfficial = msg.sender;\r\n        electionProposals.length = _numOfProposals;\r\n    }\r\n\r\n    //ELECTION SETUP FUNCTIONS\r\n    function register(address voter) public onlyOfficial {\r\n        //Check if the voter is already registered based on their address\r\n        if(registeredVoters[voter].voterAddress != address(0)) revert();\r\n        \r\n        registeredVoters[voter].voterAddress = voter;\r\n        registeredVoters[voter].voted = false;\r\n    }\r\n\r\n    //VOTING FUNCTIONS\r\n    function vote(uint256[] memory voterChoices) public isRegisteredVoter hasNotVoted {\r\n        Voter storage sender = registeredVoters[msg.sender];\r\n        for(uint256 index = 0; index < electionProposals.length; index++){\r\n        sender.choices[index] = voterChoices[index];\r\n        if(sender.choices[index] == 0){\r\n            electionProposals[index].noCount++;\r\n        } else if(sender.choices[index] == 1){\r\n            electionProposals[index].yesCount++;\r\n        }\r\n        }\r\n        sender.voted = true;\r\n    }\r\n\r\n    function getWinningProposals() public view returns(uint256[] memory winningProposals){\r\n        for(uint256 index = 0; index < electionProposals.length; index++){\r\n            if(electionProposals[index].yesCount > electionProposals[index].noCount ){\r\n                winningProposals[index] = 1;\r\n            } else {\r\n                winningProposals[index] = 0;\r\n            }\r\n        }\r\n    }\r\n\r\n    //AUDITING FUNCTIONS\r\n    function getProposalCount(uint256 proposalNumber) public view returns (uint256[2] memory totalCounts){\r\n       totalCounts[0] = electionProposals[proposalNumber].noCount;\r\n       totalCounts[1] = electionProposals[proposalNumber].yesCount;\r\n\r\n       return totalCounts;\r\n    }\r\n\r\n    function getVoterChoices(address voter) public view returns (uint[] memory finalChoices){\r\n        if(msg.sender != voter) revert();\r\n        return registeredVoters[voter].choices;\r\n    }\r\n}",
  "sourcePath": "C:/Users/ChyChy/Coding/Personal/voting-dapp/contracts/Election.sol",
  "compiler": {
    "name": "solc",
    "version": "0.5.16+commit.9c3226ce.Emscripten.clang"
  },
  "schemaVersion": "3.2.5",
  "updatedAt": "2020-11-04T19:28:41.004Z",
  "networkType": "ethereum",
  "devdoc": {
    "methods": {}
  },
  "userdoc": {
    "methods": {}
  }
}